:020000040000FA
:04000000FEEFFFF020
:020000040001F9
:10FF5800120012001200800EBE6E000E0401006F27
:10FF6800000EC66E120001EE01F10D0EEE6AE806F3
:10FF7800FDE10001D1EFFFF0000E096E000E0A6EE0
:10FF8800000E0B6E000E0C6E000E056E000E066E57
:10FF9800000E076E000E086E1200048EACECFFF027
:10FFA800C0ECFFF0AFECFFF0AEECFFF0E2ECFFF0DE
:10FFB800ADECFFF0DAEFFFF0FEEFFFF0800E106E11
:10FFC800F5EFFFF0610040F4BEF40E0E0F6EAC0EBC
:10FFD8000E6EDE0EE82EFED70E2EFCD70F2EFAD7A9
:10FFE800102ABF0E1064FBEFFFF0FDEFFFF0E6EF05
:08FFF800FFF01200B7EFFFF06B
:020000040020DA
:10000000FF0FFF0FFF0FFF0FFF0FFF0FFF0FFF0F80
:10001000FF0FFF0FFF0FFF0FFF0FFF0FFF0FFF0F70
:020000040030CA
:0A0000008CFEFFFC9FFFFFFFFFFFD7
:00000001FF
