:020000040000FA
:04000000FEEFFFF020
:020000040001F9
:10FED60012001200120011000000000ECF6E010E7B
:10FEE6000401086F010EC76E800EBE6E000E006F15
:10FEF600000EC66E1200000E0D6E000E0E6E000E87
:10FF06000F6E000E106E000E096E000E0A6E000EC9
:10FF16000B6E000E0C6E1200088E6BECFFF07EEC82
:10FF2600FFF070ECFFF06DECFFF0B9ECFFF06CEC5D
:10FF3600FFF098EFFFF0FEEFFFF0DC0EF66EFE0E20
:10FF4600F76E010EF86E01EE12F110EE04F00900E4
:10FF5600F5C4EEF4E550E150FAE101EE01F1110EBF
:10FF6600EE6AE806FDE100018FEFFFF0CF50D8A45E
:10FF7600BFEFFFF0C1EFFFF0E7EFFFF0010E016EFC
:10FF8600000E026E000E036E000E046E010E1226A7
:10FF9600000E132214221522E7EFFFF0CF50D8B43B
:10FFA600D7EFFFF0D9EFFFF0E7EFFFF0BE2A000E24
:10FFB600016E000E026E000E036E000E046E120637
:10FFC600000E135A145A155A015002100310041049
:10FFD600D8A4F0EFFFF0F2EFFFF0D1EFFFF0C00E84
:10FFE600BE18D8A4F9EFFFF0FBEFFFF0FDEFFFF02E
:0AFFF600800EBE6E1200A0EFFFF0B7
:020000040020DA
:10000000FF0FFF0FFF0FFF0FFF0FFF0FFF0FFF0F80
:10001000FF0FFF0FFF0FFF0FFF0FFF0FFF0FFF0F70
:020000040030CA
:0A0000008CFEFFFC9FFFFFFFFFFFD7
:00000001FF
