:020000040000FA
:04000000FEEFFFF020
:020000040001F9
:10FDBC001200000E0401006F000EC66EA00E0001B2
:10FDCC007F6F1200800EBE6E900E03011A6F540EE0
:10FDDC001B6F000E00017D6F1200000E096E000EED
:10FDEC000A6E000E0B6E000E0C6E000E056E000EF1
:10FDFC00066E000E076E000E086E120003011A51FB
:10FE0C007F0B1A6F0E1C126E0F1C136E12C510F5A1
:10FE1C001350116E610040F418F3610044F419F3AF
:10FE2C00B1507F0BB16E1A5180091A6F1200FC0E83
:10FE3C00F66EFE0EF76E010EF86E01EE00F210EE8D
:10FE4C0000F10900F5C4EEF4E550E150FAE1E2509E
:10FE5C00F8E101EE01F10D0EEE6AE806FDE100019C
:10FE6C0038EFFFF0048EDEECFEF0F3ECFEF0DFEC8E
:10FE7C00FEF0E8ECFEF054ECFFF0000E0F6E020EFC
:10FE8C000E6E04ECFFF0B1AE4EEFFFF050EFFFF052
:10FE9C0049EFFFF041EFFFF0FEEFFFF0000E156EA3
:10FEAC00000E146E000E1424D96E060E1520DA6E98
:10FEBC00DF5000017D6F000E0F6E0B0E0E6E04EC0A
:10FECC00FFF0B1AE6CEFFFF06EEFFFF067EFFFF0FD
:10FEDC00040E1426000E152215BE7BEFFFF0150440
:10FEEC00D8A07BEFFFF07DEFFFF058EFFFF0120092
:10FEFC00808386898C8F9295989B9EA2A5A7AAAD8C
:10FF0C00B0B3B6B9BCBEC1C4C6C9CBCED0D3D5D79D
:10FF1C00DADCDEE0E2E4E6E8EAEBEDEEF0F1F3F455
:10FF2C00F5F6F8F9FAFAFBFCFDFDFEFEFEFFFFFF0D
:10FF3C00FFFFFFFFFEFEFEFDFDFCFBFAFAF9F8F6F3
:10FF4C00F5F4F3F1F0EEEDEBEAE8E6E4E2E0DEDC0A
:10FF5C00DAD7D5D3D0CECBC9C6C4C1BEBCB9B6B323
:10FF6C00B0ADAAA7A5A29E9B9895928F8C898683EB
:10FF7C00807C797673706D6A6764615D5A585552EE
:10FF8C004F4C494643413E3B393634312F2C2A28BD
:10FF9C002523211F1D1B1917151412110F0E0C0BE5
:10FFAC000A0907060505040302020101010000000D
:10FFBC000000000001010102020304050506070907
:10FFCC000A0B0C0E0F1112141517191B1D1F2123D0
:10FFDC0025282A2C2F313436393B3E414346494C97
:10FFEC004F5255585A5D6164676A6D707376797CAF
:04FFFC001DEFFFF006
:020000040020DA
:10000000FF0FFF0FFF0FFF0FFF0FFF0FFF0FFF0F80
:10001000FF0FFF0FFF0FFF0FFF0FFF0FFF0FFF0F70
:020000040030CA
:0A0000008CFEFFFC9FFFFFFFFFFFD7
:00000001FF
