:020000040000FA
:04000000FEEFFFF020
:020000040001F9
:10FECE0012001200000C1E3F1E0C800EBE6E000EA5
:10FEDE000401006F000EC66E1200800EBE6E900EF4
:10FEEE0003011A6F540E1B6F1200000E096E000EE6
:10FEFE000A6E000E0B6E000E0C6E000E056E000EDE
:10FF0E00066E000E076E000E086E120003011A9F99
:10FF1E00181C1A6E191C1B6E610068F418F31B5026
:10FF2E00196FB19E1A8FB1AE9FEFFFF0A1EFFFF0E8
:10FF3E009AEFFFF01200048E67ECFFF07CECFFF0FE
:10FF4E006CECFFF074ECFFF0D4ECFFF0BE9E68ECAE
:10FF5E00FFF0030E196EE80E186E8DECFFF0BE8EDC
:10FF6E00ABEFFFF0FEEFFFF0D20EF66EFE0EF76E69
:10FF7E00010EF86E01EE12F110EE06F00900F5C456
:10FF8E00EEF4E550E150FAE101EE01F1110EEE6AE8
:10FF9E00E806FDE10001A2EFFFF0F40E0F1806E1F6
:10FFAE001004D8A4DDEFFFF0DFEFFFF0FBEFFFF062
:10FFBE00120E0D24D96E050E0E20DA6EDF50BE6EB7
:10FFCE00000E106E000E0F6E0D4A0E2A060E0D1844
:10FFDE000E10D8A4F5EFFFF0F7EFFFF0FBEFFFF0F8
:10FFEE00000E0E6E000E0D6E0F4A102A1200BBEFA1
:02FFFE00FFF012
:020000040020DA
:10000000FF0FFF0FFF0FFF0FFF0FFF0FFF0FFF0F80
:10001000FF0FFF0FFF0FFF0FFF0FFF0FFF0FFF0F70
:020000040030CA
:0A0000008CFEFFFC9FFFFFFFFFFFD7
:00000001FF
