:020000040000FA
:04000000FEEFFFF020
:020000040001F9
:10FF620012001200120001EE01F10D0EEE6AE80617
:10FF7200FDE10001EDEFFFF0800EBE6E000E040108
:10FF8200006F000EC66E200ECF6E010E086F010EBE
:10FF9200C76E1200000E096E000E0A6E000E0B6E86
:10FFA200000E0C6E000E056E000E066E000E076E41
:10FFB200000E086E1200800E0E6EE4EFFFF061007C
:10FFC20038F4BEF40E2ABF0E0E64EAEFFFF0ECEF37
:10FFD200FFF0E0EFFFF01200048EB1ECFFF0CBEC8B
:10FFE200FFF0BDECFFF0B3ECFFF0DCECFFF0B2ECA5
:0EFFF200FFF0F6EFFFF0FEEFFFF0B4EFFFF0D0
:020000040020DA
:10000000FF0FFF0FFF0FFF0FFF0FFF0FFF0FFF0F80
:10001000FF0FFF0FFF0FFF0FFF0FFF0FFF0FFF0F70
:020000040030CA
:0A0000008CFEFFFC9FFFFFFFFFFFD7
:00000001FF
