:020000040000FA
:04000000FEEFFFF020
:020000040001F9
:10FF260012001200800EBE6E900E03011A6F540E60
:10FF36001B6F120001EE01F10D0EEE6AE806FDE1FF
:10FF46000001E5EFFFF0000E0401006F000EC66E23
:10FF5600A00E00017F6F000E7D6F1200BAEFFFF05A
:10FF66007D2B000E0F6E040E0E6ED0ECFFF000011E
:10FF76007D51B3EFFFF01200000E096E000E0A6EFF
:10FF8600000E0B6E000E0C6E000E056E000E066E59
:10FF9600000E076E000E086E120003011A9F0E1C5B
:10FFA600106E0F1C116E610040F418F31150196F9A
:10FFB600B19E1A8FB1AEE2EFFFF0E4EFFFF0DDEF96
:10FFC600FFF01200048E93ECFFF0BFECFFF0A6ECFE
:10FFD600FFF095ECFFF0B1ECFFF0BE9E94ECFFF065
:10FFE600030E0F6EE80E0E6ED0ECFFF0BE8EEEEF37
:0AFFF600FFF0FEEFFFF09DEFFFF0BB
:020000040020DA
:10000000FF0FFF0FFF0FFF0FFF0FFF0FFF0FFF0F80
:10001000FF0FFF0FFF0FFF0FFF0FFF0FFF0FFF0F70
:020000040030CA
:0A0000008CFEFFFC9FFFFFFFFFFFD7
:00000001FF
