:020000040000FA
:04000000FEEFFFF020
:020000040001F9
:10FF8E001200120012001200800EBE6E000E04014E
:10FF9E00006F000EC66E120001EE01F10D0EEE6A3C
:10FFAE00E806FDE10001EDEFFFF0000E096E000E18
:10FFBE000A6E000E0B6E000E0C6E000E056E000E1D
:10FFCE00066E000E076E000E086E1200048EC7EC51
:10FFDE00FFF0DCECFFF0CBECFFF0C9ECFFF0CAEC6D
:10FFEE00FFF0C8ECFFF0F6EFFFF0FEEFFFF0D3EFFF
:02FFFE00FFF012
:020000040020DA
:10000000FF0FFF0FFF0FFF0FFF0FFF0FFF0FFF0F80
:10001000FF0FFF0FFF0FFF0FFF0FFF0FFF0FFF0F70
:020000040030CA
:0A0000008CFEFFFC9FFFFFFFFFFFD7
:00000001FF
