:020000040000FA
:04000000FEEFFFF020
:020000040001F9
:10FF100012001200120001EE01F1110EEE6AE80665
:10FF2000FDE10001B3EFFFF0000ECF6E010E040102
:10FF3000086F010EC76E800EBE6E000E006F000EC1
:10FF4000C66E1200000E0D6E000E0E6E000E0F6ECD
:10FF5000000E106E000E096E000E0A6E000E0B6E83
:10FF6000000E0C6E1200088E88ECFFF0A2ECFFF081
:10FF700094ECFFF08AECFFF0C4ECFFF089ECFFF0AA
:10FF8000BCEFFFF0FEEFFFF0CF50D8A4CAEFFFF0B8
:10FF9000CCEFFFF0E7EFFFF0010E016E000E026EF6
:10FFA000000E036E000E046EE7EFFFF0CF50D8B4E2
:10FFB000DCEFFFF0DEEFFFF0E7EFFFF0BE2A000E10
:10FFC000016E000E026E000E036E000E046E0150F4
:10FFD000021003100410D8A4F0EFFFF0F2EFFFF0CE
:10FFE000D6EFFFF0C00EBE18D8A4F9EFFFF0FBEF7C
:10FFF000FFF0FDEFFFF0800EBE6E12008BEFFFF002
:020000040020DA
:10000000FF0FFF0FFF0FFF0FFF0FFF0FFF0FFF0F80
:10001000FF0FFF0FFF0FFF0FFF0FFF0FFF0FFF0F70
:020000040030CA
:0A0000008CFEFFFC9FFFFFFFFFFFD7
:00000001FF
