:020000040000FA
:04000000FEEFFFF020
:020000040001F9
:10FEE6001200900E03011A6F540E1B6F120001EEE2
:10FEF60001F10D0EEE6AE806FDE10001AFEFFFF03D
:10FF0600000E0401006F000EC66EA00E00017F6F8A
:10FF1600000E7D6F120003011A517F0B1A6F0E1C23
:10FF2600106E0F1C116E610040F418F31150196F1A
:10FF3600B19E1A8F1200000E096E000E0A6E000E98
:10FF46000B6E000E0C6E000E056E000E066E000E99
:10FF5600076E000E086E1200048E73ECFFF09EEC26
:10FF6600FFF083ECFFF074ECFFF0CEECFFF0000E38
:10FF76000F6E020E0E6E8EECFFF0B1AEC5EFFFF007
:10FF8600C7EFFFF0C0EFFFF0040E00017D27B8EFCA
:10FF9600FFF0FEEFFFF0DEEFFFF07D2B000E0F6EA1
:10FFA600060E0E6E8EECFFF0B1AEDCEFFFF0DEEF6C
:10FFB600FFF0D7EFFFF000017D29D8A4E5EFFFF0B1
:10FFC600E7EFFFF0D0EFFFF07D29D8A4EDEFFFF0CB
:10FFD600EFEFFFF0FDEFFFF07D51000E0F6E060E06
:10FFE6000E6E8EECFFF0B1AEFBEFFFF0FDEFFFF013
:0AFFF600F6EFFFF012007AEFFFF0C3
:020000040020DA
:10000000FF0FFF0FFF0FFF0FFF0FFF0FFF0FFF0F80
:10001000FF0FFF0FFF0FFF0FFF0FFF0FFF0FFF0F70
:020000040030CA
:0A0000008CFEFFFC9FFFFFFFFFFFD7
:00000001FF
