:020000040000FA
:0400000081EF00F09C
:100008003A0122012201220140002201400022017E
:1000180022012201220122012201220122012201C0
:100028002201400040004000220122012201220159
:100038002201220122013301F400220122012201BE
:100048002201220122012201400040002201220156
:100058002201220122014000220122012201220163
:100068002201220122012201220122012201220170
:100078002201220122012201400022012201220143
:100088002201220122012201220122012201220150
:1000980022012201220122014000220140004000E9
:1000A8002201220122012201220122012201220130
:1000B8002201220122012201220122012201220120
:1000C8002201220122012201220122012201220110
:1000D8002201220122012201220122012201220100
:1000E800400022012201220140004000400040005F
:1000F8002201220122012201FF006DEF01F080831D
:1001080086898C8F9295989B9EA2A5A7AAADB0B31D
:10011800B6B9BCBEC1C4C6C9CBCED0D3D5D7DADC3C
:10012800DEE0E2E4E6E8EAEBEDEEF0F1F3F4F5F612
:10013800F8F9FAFAFBFCFDFDFEFEFEFFFFFFFFFFEC
:10014800FFFFFEFEFEFDFDFCFBFAFAF9F8F6F5F4FA
:10015800F3F1F0EEEDEBEAE8E6E4E2E0DEDCDAD734
:10016800D5D3D0CECBC9C6C4C1BEBCB9B6B3B0AD69
:10017800AAA7A5A29E9B9895928F8C898683807C3E
:10018800797673706D6A6764615D5A5855524F4C41
:10019800494643413E3B393634312F2C2A28252302
:1001A800211F1D1B1917151412110F0E0C0B0A090C
:1001B8000706050504030202010101000000000012
:1001C80000000101010202030405050607090A0BE4
:1001D8000C0E0F1112141517191B1D1F212325288A
:1001E8002A2C2F313436393B3E414346494C4F5235
:1001F80055585A5D6164676A6D707376797C21EE33
:100208007EF111EE09F11D0EDBC4E3F4E806FCE211
:1002180021EE60F111EE27F11D0EDBC4E3F4E806D0
:10022800FCE2D8905534D96E5634DA6E090ED926C8
:10023800050EDA22610078F302F5610074F303F524
:10024800010E046E9FEC01F0534A542AD89055349D
:10025800D96E5634DA6E270ED926050EDA22535097
:10026800DE1807E15450DE18D8A43DEF01F03FEF47
:1002780001F05EEF01F0554A562A000E546E000E4A
:10028800536E000E466E000E456E000E036E000E95
:10029800026E010E046E9FEC01F0454A462A465054
:1002A80009E1320E455CD8A05CEF01F05EEF01F089
:1002B80049EF01F00F0E55185610D8A466EF01F05B
:1002C80068EF01F06CEF01F0000E566E000E556EEF
:1002D8001200060EF66E010EF76E000EF86E01EEB5
:1002E80000F210EE00F10900F5C4EEF4E550E1501B
:1002F800FAE1E250F8E1920EF66E030EF76E000E88
:10030800F86E01EE60F110EE3CF00900F5C4EEF471
:10031800E550E150FAE101EE47F1150EEE6AE80604
:10032800FDE10401080E5D6F000E5E6F000E5F6F49
:1003380000011FEF02F003011E91800E035CD8A09C
:10034800A8EF01F0AAEF01F0ADEF01F07F0E036E08
:100358000268021C056E031C066E0650596E05C520
:1003680058F5610064F51DF3610060F51CF35A90BF
:100378000450D8B4C2EF01F0C4EF01F0C5EF01F0AA
:100388005A80B198A1881E81120000020002000262
:100398000002000200020004000200020002000243
:1003A80000020002000400083C003C00280028006D
:1003B8002400240028002D002D002F002F003500D8
:0603C80035003C000000BE
:1003D000610064F51DF3610060F51CF3000E572405
:1003E000D96EDA6A060EDA22DF5000017D6F040E44
:1003F0005726B1985AB0FFEF01F001EF02F004EF79
:1004000002F0A19803011E911100000E4F6E000E24
:10041000506E000E516E000E526E000E4B6E000EAE
:100420004C6E000E4D6E000E4E6E7D0E0301236F5E
:10043000010E266FB196F00E246FA18612005B8E1E
:1004400076EC02F051EC02F06FEC02F005EC02F0F9
:1004500035EC02F05B9E03EC01F0BE9E5CEC02F01A
:10046000BE8E2BEF02F081EF00F0C00EBE16900E94
:1004700003011A6F540E1B6F000E1F6F010E216FC8
:06048000310E1E6F120098
:10048800610060F301F5010E4726000E482249225B
:100498004A22610004F4D8F41100000E0401006F30
:1004A800000EC66EA00E00017F6F000E7D6F120059
:1004B8005B8C5BBC62EF02F064EF02F05DEF02F070
:0204C800120020
:1004CC00B1965B9C010E4F26000E502251225222F7
:0A04DC001100D68AD68ED68C1200CD
:0604E800AE9011001200AD
:020000040020DA
:10000000FF0FFF0FFF0FFF0FFF0FFF0FFF0FFF0F80
:10001000FF0FFF0FFF0FFF0FFF0FFF0FFF0FFF0F70
:020000040030CA
:0A0000008CFEFFFC9FFFFFFFFFFFD7
:00000001FF
